{"abi":[{"type":"constructor","inputs":[{"name":"initialOwner","type":"address","internalType":"address"}],"stateMutability":"nonpayable"},{"type":"function","name":"approve","inputs":[{"name":"to","type":"address","internalType":"address"},{"name":"tokenId","type":"uint256","internalType":"uint256"}],"outputs":[],"stateMutability":"nonpayable"},{"type":"function","name":"badgeTypes","inputs":[{"name":"","type":"uint256","internalType":"uint256"}],"outputs":[{"name":"name","type":"string","internalType":"string"},{"name":"description","type":"string","internalType":"string"},{"name":"imageURI","type":"string","internalType":"string"},{"name":"totalIssued","type":"uint256","internalType":"uint256"}],"stateMutability":"view"},{"type":"function","name":"balanceOf","inputs":[{"name":"owner","type":"address","internalType":"address"}],"outputs":[{"name":"","type":"uint256","internalType":"uint256"}],"stateMutability":"view"},{"type":"function","name":"createBadgeType","inputs":[{"name":"name","type":"string","internalType":"string"},{"name":"description","type":"string","internalType":"string"},{"name":"imageURI","type":"string","internalType":"string"}],"outputs":[{"name":"typeId","type":"uint256","internalType":"uint256"}],"stateMutability":"nonpayable"},{"type":"function","name":"getApproved","inputs":[{"name":"tokenId","type":"uint256","internalType":"uint256"}],"outputs":[{"name":"","type":"address","internalType":"address"}],"stateMutability":"view"},{"type":"function","name":"hasBadge","inputs":[{"name":"","type":"address","internalType":"address"},{"name":"","type":"uint256","internalType":"uint256"}],"outputs":[{"name":"","type":"bool","internalType":"bool"}],"stateMutability":"view"},{"type":"function","name":"isApprovedForAll","inputs":[{"name":"owner","type":"address","internalType":"address"},{"name":"operator","type":"address","internalType":"address"}],"outputs":[{"name":"","type":"bool","internalType":"bool"}],"stateMutability":"view"},{"type":"function","name":"issue","inputs":[{"name":"recipient","type":"address","internalType":"address"},{"name":"typeId","type":"uint256","internalType":"uint256"}],"outputs":[{"name":"tokenId","type":"uint256","internalType":"uint256"}],"stateMutability":"nonpayable"},{"type":"function","name":"name","inputs":[],"outputs":[{"name":"","type":"string","internalType":"string"}],"stateMutability":"view"},{"type":"function","name":"nextTokenId","inputs":[],"outputs":[{"name":"","type":"uint256","internalType":"uint256"}],"stateMutability":"view"},{"type":"function","name":"nextTypeId","inputs":[],"outputs":[{"name":"","type":"uint256","internalType":"uint256"}],"stateMutability":"view"},{"type":"function","name":"owner","inputs":[],"outputs":[{"name":"","type":"address","internalType":"address"}],"stateMutability":"view"},{"type":"function","name":"ownerOf","inputs":[{"name":"tokenId","type":"uint256","internalType":"uint256"}],"outputs":[{"name":"","type":"address","internalType":"address"}],"stateMutability":"view"},{"type":"function","name":"renounceOwnership","inputs":[],"outputs":[],"stateMutability":"nonpayable"},{"type":"function","name":"safeTransferFrom","inputs":[{"name":"from","type":"address","internalType":"address"},{"name":"to","type":"address","internalType":"address"},{"name":"tokenId","type":"uint256","internalType":"uint256"}],"outputs":[],"stateMutability":"nonpayable"},{"type":"function","name":"safeTransferFrom","inputs":[{"name":"from","type":"address","internalType":"address"},{"name":"to","type":"address","internalType":"address"},{"name":"tokenId","type":"uint256","internalType":"uint256"},{"name":"data","type":"bytes","internalType":"bytes"}],"outputs":[],"stateMutability":"nonpayable"},{"type":"function","name":"setApprovalForAll","inputs":[{"name":"operator","type":"address","internalType":"address"},{"name":"approved","type":"bool","internalType":"bool"}],"outputs":[],"stateMutability":"nonpayable"},{"type":"function","name":"supportsInterface","inputs":[{"name":"interfaceId","type":"bytes4","internalType":"bytes4"}],"outputs":[{"name":"","type":"bool","internalType":"bool"}],"stateMutability":"view"},{"type":"function","name":"symbol","inputs":[],"outputs":[{"name":"","type":"string","internalType":"string"}],"stateMutability":"view"},{"type":"function","name":"tokenBadgeType","inputs":[{"name":"","type":"uint256","internalType":"uint256"}],"outputs":[{"name":"","type":"uint256","internalType":"uint256"}],"stateMutability":"view"},{"type":"function","name":"tokenURI","inputs":[{"name":"tokenId","type":"uint256","internalType":"uint256"}],"outputs":[{"name":"","type":"string","internalType":"string"}],"stateMutability":"view"},{"type":"function","name":"transferFrom","inputs":[{"name":"","type":"address","internalType":"address"},{"name":"","type":"address","internalType":"address"},{"name":"","type":"uint256","internalType":"uint256"}],"outputs":[],"stateMutability":"pure"},{"type":"function","name":"transferOwnership","inputs":[{"name":"newOwner","type":"address","internalType":"address"}],"outputs":[],"stateMutability":"nonpayable"},{"type":"event","name":"Approval","inputs":[{"name":"owner","type":"address","indexed":true,"internalType":"address"},{"name":"approved","type":"address","indexed":true,"internalType":"address"},{"name":"tokenId","type":"uint256","indexed":true,"internalType":"uint256"}],"anonymous":false},{"type":"event","name":"ApprovalForAll","inputs":[{"name":"owner","type":"address","indexed":true,"internalType":"address"},{"name":"operator","type":"address","indexed":true,"internalType":"address"},{"name":"approved","type":"bool","indexed":false,"internalType":"bool"}],"anonymous":false},{"type":"event","name":"BadgeIssued","inputs":[{"name":"recipient","type":"address","indexed":true,"internalType":"address"},{"name":"tokenId","type":"uint256","indexed":true,"internalType":"uint256"},{"name":"typeId","type":"uint256","indexed":true,"internalType":"uint256"}],"anonymous":false},{"type":"event","name":"BadgeTypeCreated","inputs":[{"name":"typeId","type":"uint256","indexed":true,"internalType":"uint256"},{"name":"name","type":"string","indexed":false,"internalType":"string"}],"anonymous":false},{"type":"event","name":"OwnershipTransferred","inputs":[{"name":"previousOwner","type":"address","indexed":true,"internalType":"address"},{"name":"newOwner","type":"address","indexed":true,"internalType":"address"}],"anonymous":false},{"type":"event","name":"Transfer","inputs":[{"name":"from","type":"address","indexed":true,"internalType":"address"},{"name":"to","type":"address","indexed":true,"internalType":"address"},{"name":"tokenId","type":"uint256","indexed":true,"internalType":"uint256"}],"anonymous":false},{"type":"error","name":"AlreadyHasBadge","inputs":[]},{"type":"error","name":"BadgeTypeNotFound","inputs":[]},{"type":"error","name":"ERC721IncorrectOwner","inputs":[{"name":"sender","type":"address","internalType":"address"},{"name":"tokenId","type":"uint256","internalType":"uint256"},{"name":"owner","type":"address","internalType":"address"}]},{"type":"error","name":"ERC721InsufficientApproval","inputs":[{"name":"operator","type":"address","internalType":"address"},{"name":"tokenId","type":"uint256","internalType":"uint256"}]},{"type":"error","name":"ERC721InvalidApprover","inputs":[{"name":"approver","type":"address","internalType":"address"}]},{"type":"error","name":"ERC721InvalidOperator","inputs":[{"name":"operator","type":"address","internalType":"address"}]},{"type":"error","name":"ERC721InvalidOwner","inputs":[{"name":"owner","type":"address","internalType":"address"}]},{"type":"error","name":"ERC721InvalidReceiver","inputs":[{"name":"receiver","type":"address","internalType":"address"}]},{"type":"error","name":"ERC721InvalidSender","inputs":[{"name":"sender","type":"address","internalType":"address"}]},{"type":"error","name":"ERC721NonexistentToken","inputs":[{"name":"tokenId","type":"uint256","internalType":"uint256"}]},{"type":"error","name":"OwnableInvalidOwner","inputs":[{"name":"owner","type":"address","internalType":"address"}]},{"type":"error","name":"OwnableUnauthorizedAccount","inputs":[{"name":"account","type":"address","internalType":"address"}]},{"type":"error","name":"Soulbound","inputs":[]}],"bytecode":{"object":"0x608060405234801561000f575f5ffd5b50604051612de8380380612de883398181016040528101906100319190610266565b806040518060400160405280600581526020017f42616467650000000000000000000000000000000000000000000000000000008152506040518060400160405280600581526020017f4241444745000000000000000000000000000000000000000000000000000000815250815f90816100ac91906104df565b5080600190816100bc91906104df565b5050505f73ffffffffffffffffffffffffffffffffffffffff168173ffffffffffffffffffffffffffffffffffffffff160361012f575f6040517f1e4fbdf700000000000000000000000000000000000000000000000000000000815260040161012691906105bd565b60405180910390fd5b61013e8161014560201b60201c565b50506105d6565b5f60065f9054906101000a900473ffffffffffffffffffffffffffffffffffffffff1690508160065f6101000a81548173ffffffffffffffffffffffffffffffffffffffff021916908373ffffffffffffffffffffffffffffffffffffffff1602179055508173ffffffffffffffffffffffffffffffffffffffff168173ffffffffffffffffffffffffffffffffffffffff167f8be0079c531659141344cd1fd0a4f28419497f9722a3daafe3b4186f6b6457e060405160405180910390a35050565b5f5ffd5b5f73ffffffffffffffffffffffffffffffffffffffff82169050919050565b5f6102358261020c565b9050919050565b6102458161022b565b811461024f575f5ffd5b50565b5f815190506102608161023c565b92915050565b5f6020828403121561027b5761027a610208565b5b5f61028884828501610252565b91505092915050565b5f81519050919050565b7f4e487b71000000000000000000000000000000000000000000000000000000005f52604160045260245ffd5b7f4e487b71000000000000000000000000000000000000000000000000000000005f52602260045260245ffd5b5f600282049050600182168061030c57607f821691505b60208210810361031f5761031e6102c8565b5b50919050565b5f819050815f5260205f209050919050565b5f6020601f8301049050919050565b5f82821b905092915050565b5f600883026103817fffffffffffffffffffffffffffffffffffffffffffffffffffffffffffffffff82610346565b61038b8683610346565b95508019841693508086168417925050509392505050565b5f819050919050565b5f819050919050565b5f6103cf6103ca6103c5846103a3565b6103ac565b6103a3565b9050919050565b5f819050919050565b6103e8836103b5565b6103fc6103f4826103d6565b848454610352565b825550505050565b5f5f905090565b610413610404565b61041e8184846103df565b505050565b5f5b82811015610444576104395f82840161040b565b600181019050610425565b505050565b601f82111561049757828211156104965761046381610325565b61046c83610337565b61047585610337565b6020861015610482575f90505b80830161049182840382610423565b505050505b5b505050565b5f82821c905092915050565b5f6104b75f198460080261049c565b1980831691505092915050565b5f6104cf83836104a8565b9150826002028217905092915050565b6104e882610291565b67ffffffffffffffff8111156105015761050061029b565b5b61050b82546102f5565b610516828285610449565b5f60209050601f831160018114610547575f8415610535578287015190505b61053f85826104c4565b8655506105a6565b601f19841661055586610325565b5f5b8281101561057c57848901518255600182019150602085019450602081019050610557565b868310156105995784890151610595601f8916826104a8565b8355505b6001600288020188555050505b505050505050565b6105b78161022b565b82525050565b5f6020820190506105d05f8301846105ae565b92915050565b612805806105e35f395ff3fe608060405234801561000f575f5ffd5b506004361061014b575f3560e01c80638530a3bf116100c1578063ae9abb7b1161007a578063ae9abb7b146103af578063b88d4fde146103e2578063c87b56dd146103fe578063e985e9c51461042e578063ee7103ac1461045e578063f2fde38b1461048e5761014b565b80638530a3bf146102d9578063867904b4146103095780638da5cb5b1461033957806393c2c2a21461035757806395d89b4114610375578063a22cb465146103935761014b565b806342842e0e1161011357806342842e0e146102055780634c6a70ce146102215780636352211e1461025157806370a0823114610281578063715018a6146102b157806375794a3c146102bb5761014b565b806301ffc9a71461014f57806306fdde031461017f578063081812fc1461019d578063095ea7b3146101cd57806323b872dd146101e9575b5f5ffd5b61016960048036038101906101649190611cc8565b6104aa565b6040516101769190611d0d565b60405180910390f35b61018761058b565b6040516101949190611d96565b60405180910390f35b6101b760048036038101906101b29190611de9565b61061a565b6040516101c49190611e53565b60405180910390f35b6101e760048036038101906101e29190611e96565b610635565b005b61020360048036038101906101fe9190611ed4565b61064b565b005b61021f600480360381019061021a9190611ed4565b61067d565b005b61023b60048036038101906102369190611e96565b61069c565b6040516102489190611d0d565b60405180910390f35b61026b60048036038101906102669190611de9565b6106c6565b6040516102789190611e53565b60405180910390f35b61029b60048036038101906102969190611f24565b6106d7565b6040516102a89190611f5e565b60405180910390f35b6102b961078d565b005b6102c36107a0565b6040516102d09190611f5e565b60405180910390f35b6102f360048036038101906102ee9190611de9565b6107a6565b6040516103009190611f5e565b60405180910390f35b610323600480360381019061031e9190611e96565b6107bb565b6040516103309190611f5e565b60405180910390f35b61034161099f565b60405161034e9190611e53565b60405180910390f35b61035f6109c7565b60405161036c9190611f5e565b60405180910390f35b61037d6109cd565b60405161038a9190611d96565b60405180910390f35b6103ad60048036038101906103a89190611fa1565b610a5d565b005b6103c960048036038101906103c49190611de9565b610a73565b6040516103d99493929190611fdf565b60405180910390f35b6103fc60048036038101906103f79190612163565b610c31565b005b61041860048036038101906104139190611de9565b610c56565b6040516104259190611d96565b60405180910390f35b610448600480360381019061044391906121e3565b610d1a565b6040516104559190611d0d565b60405180910390f35b6104786004803603810190610473919061227e565b610da8565b6040516104859190611f5e565b60405180910390f35b6104a860048036038101906104a39190611f24565b610f55565b005b5f7f80ac58cd000000000000000000000000000000000000000000000000000000007bffffffffffffffffffffffffffffffffffffffffffffffffffffffff1916827bffffffffffffffffffffffffffffffffffffffffffffffffffffffff1916148061057457507f5b5e139f000000000000000000000000000000000000000000000000000000007bffffffffffffffffffffffffffffffffffffffffffffffffffffffff1916827bffffffffffffffffffffffffffffffffffffffffffffffffffffffff1916145b80610584575061058382610fd9565b5b9050919050565b60605f80546105999061235b565b80601f01602080910402602001604051908101604052809291908181526020018280546105c59061235b565b80156106105780601f106105e757610100808354040283529160200191610610565b820191905f5260205f20905b8154815290600101906020018083116105f357829003601f168201915b5050505050905090565b5f61062482611042565b5061062e826110c8565b9050919050565b6106478282610642611101565b611108565b5050565b6040517fa4420a9500000000000000000000000000000000000000000000000000000000815260040160405180910390fd5b61069783838360405180602001604052805f815250610c31565b505050565b600b602052815f5260405f20602052805f5260405f205f915091509054906101000a900460ff1681565b5f6106d082611042565b9050919050565b5f5f73ffffffffffffffffffffffffffffffffffffffff168273ffffffffffffffffffffffffffffffffffffffff1603610748575f6040517f89c62b6400000000000000000000000000000000000000000000000000000000815260040161073f9190611e53565b60405180910390fd5b60035f8373ffffffffffffffffffffffffffffffffffffffff1673ffffffffffffffffffffffffffffffffffffffff1681526020019081526020015f20549050919050565b61079561111a565b61079e5f6111a1565b565b60085481565b600a602052805f5260405f205f915090505481565b5f6107c461111a565b60075482106107ff576040517f2f62d4a800000000000000000000000000000000000000000000000000000000815260040160405180910390fd5b600b5f8473ffffffffffffffffffffffffffffffffffffffff1673ffffffffffffffffffffffffffffffffffffffff1681526020019081526020015f205f8381526020019081526020015f205f9054906101000a900460ff161561088f576040517f730106f100000000000000000000000000000000000000000000000000000000815260040160405180910390fd5b60085f8154809291906108a1906123b8565b91905055905081600a5f8381526020019081526020015f20819055506001600b5f8573ffffffffffffffffffffffffffffffffffffffff1673ffffffffffffffffffffffffffffffffffffffff1681526020019081526020015f205f8481526020019081526020015f205f6101000a81548160ff02191690831515021790555060095f8381526020019081526020015f206003015f815480929190610945906123b8565b91905055506109548382611264565b81818473ffffffffffffffffffffffffffffffffffffffff167f2597374d67813e117bb630cfba2b550b863a573e6eeb87fd46e55c0de808ef4460405160405180910390a492915050565b5f60065f9054906101000a900473ffffffffffffffffffffffffffffffffffffffff16905090565b60075481565b6060600180546109dc9061235b565b80601f0160208091040260200160405190810160405280929190818152602001828054610a089061235b565b8015610a535780601f10610a2a57610100808354040283529160200191610a53565b820191905f5260205f20905b815481529060010190602001808311610a3657829003601f168201915b5050505050905090565b610a6f610a68611101565b8383611357565b5050565b6009602052805f5260405f205f91509050805f018054610a929061235b565b80601f0160208091040260200160405190810160405280929190818152602001828054610abe9061235b565b8015610b095780601f10610ae057610100808354040283529160200191610b09565b820191905f5260205f20905b815481529060010190602001808311610aec57829003601f168201915b505050505090806001018054610b1e9061235b565b80601f0160208091040260200160405190810160405280929190818152602001828054610b4a9061235b565b8015610b955780601f10610b6c57610100808354040283529160200191610b95565b820191905f5260205f20905b815481529060010190602001808311610b7857829003601f168201915b505050505090806002018054610baa9061235b565b80601f0160208091040260200160405190810160405280929190818152602001828054610bd69061235b565b8015610c215780601f10610bf857610100808354040283529160200191610c21565b820191905f5260205f20905b815481529060010190602001808311610c0457829003601f168201915b5050505050908060030154905084565b610c3c84848461064b565b610c50610c47611101565b85858585611530565b50505050565b6060610c6182611042565b505f600a5f8481526020019081526020015f2054905060095f8281526020019081526020015f206002018054610c969061235b565b80601f0160208091040260200160405190810160405280929190818152602001828054610cc29061235b565b8015610d0d5780601f10610ce457610100808354040283529160200191610d0d565b820191905f5260205f20905b815481529060010190602001808311610cf057829003601f168201915b5050505050915050919050565b5f60055f8473ffffffffffffffffffffffffffffffffffffffff1673ffffffffffffffffffffffffffffffffffffffff1681526020019081526020015f205f8373ffffffffffffffffffffffffffffffffffffffff1673ffffffffffffffffffffffffffffffffffffffff1681526020019081526020015f205f9054906101000a900460ff16905092915050565b5f610db161111a565b60075f815480929190610dc3906123b8565b919050559050604051806080016040528088888080601f0160208091040260200160405190810160405280939291908181526020018383808284375f81840152601f19601f82011690508083019250505050505050815260200186868080601f0160208091040260200160405190810160405280939291908181526020018383808284375f81840152601f19601f82011690508083019250505050505050815260200184848080601f0160208091040260200160405190810160405280939291908181526020018383808284375f81840152601f19601f8201169050808301925050505050505081526020015f81525060095f8381526020019081526020015f205f820151815f019081610ed791906125b0565b506020820151816001019081610eed91906125b0565b506040820151816002019081610f0391906125b0565b5060608201518160030155905050807fd0b88e91a437f63f35385889d2fe2060c9ac7b71988ab82357e1b52e40ac58998888604051610f439291906126ab565b60405180910390a29695505050505050565b610f5d61111a565b5f73ffffffffffffffffffffffffffffffffffffffff168173ffffffffffffffffffffffffffffffffffffffff1603610fcd575f6040517f1e4fbdf7000000000000000000000000000000000000000000000000000000008152600401610fc49190611e53565b60405180910390fd5b610fd6816111a1565b50565b5f7f01ffc9a7000000000000000000000000000000000000000000000000000000007bffffffffffffffffffffffffffffffffffffffffffffffffffffffff1916827bffffffffffffffffffffffffffffffffffffffffffffffffffffffff1916149050919050565b5f5f61104d836116dc565b90505f73ffffffffffffffffffffffffffffffffffffffff168173ffffffffffffffffffffffffffffffffffffffff16036110bf57826040517f7e2732890000000000000000000000000000000000000000000000000000000081526004016110b69190611f5e565b60405180910390fd5b80915050919050565b5f60045f8381526020019081526020015f205f9054906101000a900473ffffffffffffffffffffffffffffffffffffffff169050919050565b5f33905090565b6111158383836001611715565b505050565b611122611101565b73ffffffffffffffffffffffffffffffffffffffff1661114061099f565b73ffffffffffffffffffffffffffffffffffffffff161461119f57611163611101565b6040517f118cdaa70000000000000000000000000000000000000000000000000000000081526004016111969190611e53565b60405180910390fd5b565b5f60065f9054906101000a900473ffffffffffffffffffffffffffffffffffffffff1690508160065f6101000a81548173ffffffffffffffffffffffffffffffffffffffff021916908373ffffffffffffffffffffffffffffffffffffffff1602179055508173ffffffffffffffffffffffffffffffffffffffff168173ffffffffffffffffffffffffffffffffffffffff167f8be0079c531659141344cd1fd0a4f28419497f9722a3daafe3b4186f6b6457e060405160405180910390a35050565b5f73ffffffffffffffffffffffffffffffffffffffff168273ffffffffffffffffffffffffffffffffffffffff16036112d4575f6040517f64a0ae920000000000000000000000000000000000000000000000000000000081526004016112cb9190611e53565b60405180910390fd5b5f6112e083835f6118d4565b90505f73ffffffffffffffffffffffffffffffffffffffff168173ffffffffffffffffffffffffffffffffffffffff1614611352575f6040517f73c6ac6e0000000000000000000000000000000000000000000000000000000081526004016113499190611e53565b60405180910390fd5b505050565b5f73ffffffffffffffffffffffffffffffffffffffff168373ffffffffffffffffffffffffffffffffffffffff16036113c7575f6040517fa9fbf51f0000000000000000000000000000000000000000000000000000000081526004016113be9190611e53565b60405180910390fd5b5f73ffffffffffffffffffffffffffffffffffffffff168273ffffffffffffffffffffffffffffffffffffffff160361143757816040517f5b08ba1800000000000000000000000000000000000000000000000000000000815260040161142e9190611e53565b60405180910390fd5b8060055f8573ffffffffffffffffffffffffffffffffffffffff1673ffffffffffffffffffffffffffffffffffffffff1681526020019081526020015f205f8473ffffffffffffffffffffffffffffffffffffffff1673ffffffffffffffffffffffffffffffffffffffff1681526020019081526020015f205f6101000a81548160ff0219169083151502179055508173ffffffffffffffffffffffffffffffffffffffff168373ffffffffffffffffffffffffffffffffffffffff167f17307eab39ab6107e8899845ad3d59bd9653f200f220920489ca2b5937696c31836040516115239190611d0d565b60405180910390a3505050565b5f8373ffffffffffffffffffffffffffffffffffffffff163b11156116d5578273ffffffffffffffffffffffffffffffffffffffff1663150b7a02868685856040518563ffffffff1660e01b815260040161158e949392919061271f565b6020604051808303815f875af19250505080156115c957506040513d601f19601f820116820180604052508101906115c6919061277d565b60015b61164a573d805f81146115f7576040519150601f19603f3d011682016040523d82523d5f602084013e6115fc565b606091505b505f81510361164257836040517f64a0ae920000000000000000000000000000000000000000000000000000000081526004016116399190611e53565b60405180910390fd5b805160208201fd5b63150b7a0260e01b7bffffffffffffffffffffffffffffffffffffffffffffffffffffffff1916817bffffffffffffffffffffffffffffffffffffffffffffffffffffffff1916146116d357836040517f64a0ae920000000000000000000000000000000000000000000000000000000081526004016116ca9190611e53565b60405180910390fd5b505b5050505050565b5f60025f8381526020019081526020015f205f9054906101000a900473ffffffffffffffffffffffffffffffffffffffff169050919050565b808061174d57505f73ffffffffffffffffffffffffffffffffffffffff168273ffffffffffffffffffffffffffffffffffffffff1614155b1561187f575f61175c84611042565b90505f73ffffffffffffffffffffffffffffffffffffffff168373ffffffffffffffffffffffffffffffffffffffff16141580156117c657508273ffffffffffffffffffffffffffffffffffffffff168173ffffffffffffffffffffffffffffffffffffffff1614155b80156117d957506117d78184610d1a565b155b1561181b57826040517fa9fbf51f0000000000000000000000000000000000000000000000000000000081526004016118129190611e53565b60405180910390fd5b811561187d57838573ffffffffffffffffffffffffffffffffffffffff168273ffffffffffffffffffffffffffffffffffffffff167f8c5be1e5ebec7d5bd14f71427d1e84f3dd0314c0f7b2291e5b200ac8c7c3b92560405160405180910390a45b505b8360045f8581526020019081526020015f205f6101000a81548173ffffffffffffffffffffffffffffffffffffffff021916908373ffffffffffffffffffffffffffffffffffffffff16021790555050505050565b5f5f6118df846116dc565b90505f73ffffffffffffffffffffffffffffffffffffffff168373ffffffffffffffffffffffffffffffffffffffff16146119205761191f818486611adf565b5b5f73ffffffffffffffffffffffffffffffffffffffff168173ffffffffffffffffffffffffffffffffffffffff16146119ab5761195f5f855f5f611715565b600160035f8373ffffffffffffffffffffffffffffffffffffffff1673ffffffffffffffffffffffffffffffffffffffff1681526020019081526020015f205f82825403925050819055505b5f73ffffffffffffffffffffffffffffffffffffffff168573ffffffffffffffffffffffffffffffffffffffff1614611a2a57600160035f8773ffffffffffffffffffffffffffffffffffffffff1673ffffffffffffffffffffffffffffffffffffffff1681526020019081526020015f205f82825401925050819055505b8460025f8681526020019081526020015f205f6101000a81548173ffffffffffffffffffffffffffffffffffffffff021916908373ffffffffffffffffffffffffffffffffffffffff160217905550838573ffffffffffffffffffffffffffffffffffffffff168273ffffffffffffffffffffffffffffffffffffffff167fddf252ad1be2c89b69c2b068fc378daa952ba7f163c4a11628f55a4df523b3ef60405160405180910390a4809150509392505050565b611aea838383611ba2565b611b9d575f73ffffffffffffffffffffffffffffffffffffffff168373ffffffffffffffffffffffffffffffffffffffff1603611b5e57806040517f7e273289000000000000000000000000000000000000000000000000000000008152600401611b559190611f5e565b60405180910390fd5b81816040517f177e802f000000000000000000000000000000000000000000000000000000008152600401611b949291906127a8565b60405180910390fd5b505050565b5f5f73ffffffffffffffffffffffffffffffffffffffff168373ffffffffffffffffffffffffffffffffffffffff1614158015611c5957508273ffffffffffffffffffffffffffffffffffffffff168473ffffffffffffffffffffffffffffffffffffffff161480611c1a5750611c198484610d1a565b5b80611c5857508273ffffffffffffffffffffffffffffffffffffffff16611c40836110c8565b73ffffffffffffffffffffffffffffffffffffffff16145b5b90509392505050565b5f604051905090565b5f5ffd5b5f5ffd5b5f7fffffffff0000000000000000000000000000000000000000000000000000000082169050919050565b611ca781611c73565b8114611cb1575f5ffd5b50565b5f81359050611cc281611c9e565b92915050565b5f60208284031215611cdd57611cdc611c6b565b5b5f611cea84828501611cb4565b91505092915050565b5f8115159050919050565b611d0781611cf3565b82525050565b5f602082019050611d205f830184611cfe565b92915050565b5f81519050919050565b5f82825260208201905092915050565b8281835e5f83830152505050565b5f601f19601f8301169050919050565b5f611d6882611d26565b611d728185611d30565b9350611d82818560208601611d40565b611d8b81611d4e565b840191505092915050565b5f6020820190508181035f830152611dae8184611d5e565b905092915050565b5f819050919050565b611dc881611db6565b8114611dd2575f5ffd5b50565b5f81359050611de381611dbf565b92915050565b5f60208284031215611dfe57611dfd611c6b565b5b5f611e0b84828501611dd5565b91505092915050565b5f73ffffffffffffffffffffffffffffffffffffffff82169050919050565b5f611e3d82611e14565b9050919050565b611e4d81611e33565b82525050565b5f602082019050611e665f830184611e44565b92915050565b611e7581611e33565b8114611e7f575f5ffd5b50565b5f81359050611e9081611e6c565b92915050565b5f5f60408385031215611eac57611eab611c6b565b5b5f611eb985828601611e82565b9250506020611eca85828601611dd5565b9150509250929050565b5f5f5f60608486031215611eeb57611eea611c6b565b5b5f611ef886828701611e82565b9350506020611f0986828701611e82565b9250506040611f1a86828701611dd5565b9150509250925092565b5f60208284031215611f3957611f38611c6b565b5b5f611f4684828501611e82565b91505092915050565b611f5881611db6565b82525050565b5f602082019050611f715f830184611f4f565b92915050565b611f8081611cf3565b8114611f8a575f5ffd5b50565b5f81359050611f9b81611f77565b92915050565b5f5f60408385031215611fb757611fb6611c6b565b5b5f611fc485828601611e82565b9250506020611fd585828601611f8d565b9150509250929050565b5f6080820190508181035f830152611ff78187611d5e565b9050818103602083015261200b8186611d5e565b9050818103604083015261201f8185611d5e565b905061202e6060830184611f4f565b95945050505050565b5f5ffd5b5f5ffd5b7f4e487b71000000000000000000000000000000000000000000000000000000005f52604160045260245ffd5b61207582611d4e565b810181811067ffffffffffffffff821117156120945761209361203f565b5b80604052505050565b5f6120a6611c62565b90506120b2828261206c565b919050565b5f67ffffffffffffffff8211156120d1576120d061203f565b5b6120da82611d4e565b9050602081019050919050565b828183375f83830152505050565b5f612107612102846120b7565b61209d565b9050828152602081018484840111156121235761212261203b565b5b61212e8482856120e7565b509392505050565b5f82601f83011261214a57612149612037565b5b813561215a8482602086016120f5565b91505092915050565b5f5f5f5f6080858703121561217b5761217a611c6b565b5b5f61218887828801611e82565b945050602061219987828801611e82565b93505060406121aa87828801611dd5565b925050606085013567ffffffffffffffff8111156121cb576121ca611c6f565b5b6121d787828801612136565b91505092959194509250565b5f5f604083850312156121f9576121f8611c6b565b5b5f61220685828601611e82565b925050602061221785828601611e82565b9150509250929050565b5f5ffd5b5f5ffd5b5f5f83601f84011261223e5761223d612037565b5b8235905067ffffffffffffffff81111561225b5761225a612221565b5b60208301915083600182028301111561227757612276612225565b5b9250929050565b5f5f5f5f5f5f6060878903121561229857612297611c6b565b5b5f87013567ffffffffffffffff8111156122b5576122b4611c6f565b5b6122c189828a01612229565b9650965050602087013567ffffffffffffffff8111156122e4576122e3611c6f565b5b6122f089828a01612229565b9450945050604087013567ffffffffffffffff81111561231357612312611c6f565b5b61231f89828a01612229565b92509250509295509295509295565b7f4e487b71000000000000000000000000000000000000000000000000000000005f52602260045260245ffd5b5f600282049050600182168061237257607f821691505b6020821081036123855761238461232e565b5b50919050565b7f4e487b71000000000000000000000000000000000000000000000000000000005f52601160045260245ffd5b5f6123c282611db6565b91507fffffffffffffffffffffffffffffffffffffffffffffffffffffffffffffffff82036123f4576123f361238b565b5b600182019050919050565b5f819050815f5260205f209050919050565b5f6020601f8301049050919050565b5f82821b905092915050565b5f6008830261245b7fffffffffffffffffffffffffffffffffffffffffffffffffffffffffffffffff82612420565b6124658683612420565b95508019841693508086168417925050509392505050565b5f819050919050565b5f6124a061249b61249684611db6565b61247d565b611db6565b9050919050565b5f819050919050565b6124b983612486565b6124cd6124c5826124a7565b84845461242c565b825550505050565b5f5f905090565b6124e46124d5565b6124ef8184846124b0565b505050565b5f5b828110156125155761250a5f8284016124dc565b6001810190506124f6565b505050565b601f821115612568578282111561256757612534816123ff565b61253d83612411565b61254685612411565b6020861015612553575f90505b808301612562828403826124f4565b505050505b5b505050565b5f82821c905092915050565b5f6125885f198460080261256d565b1980831691505092915050565b5f6125a08383612579565b9150826002028217905092915050565b6125b982611d26565b67ffffffffffffffff8111156125d2576125d161203f565b5b6125dc825461235b565b6125e782828561251a565b5f60209050601f831160018114612618575f8415612606578287015190505b6126108582612595565b865550612677565b601f198416612626866123ff565b5f5b8281101561264d57848901518255600182019150602085019450602081019050612628565b8683101561266a5784890151612666601f891682612579565b8355505b6001600288020188555050505b505050505050565b5f61268a8385611d30565b93506126978385846120e7565b6126a083611d4e565b840190509392505050565b5f6020820190508181035f8301526126c481848661267f565b90509392505050565b5f81519050919050565b5f82825260208201905092915050565b5f6126f1826126cd565b6126fb81856126d7565b935061270b818560208601611d40565b61271481611d4e565b840191505092915050565b5f6080820190506127325f830187611e44565b61273f6020830186611e44565b61274c6040830185611f4f565b818103606083015261275e81846126e7565b905095945050505050565b5f8151905061277781611c9e565b92915050565b5f6020828403121561279257612791611c6b565b5b5f61279f84828501612769565b91505092915050565b5f6040820190506127bb5f830185611e44565b6127c86020830184611f4f565b939250505056fea2646970667358221220217b4eaf7a4712f00e88f6d9de55ca77a0749eb40c58f76950a077ab8563549c64736f6c63430008210033","linkReferences":{}},"methodIdentifiers":{"approve(address,uint256)":"095ea7b3","badgeTypes(uint256)":"ae9abb7b","balanceOf(address)":"70a08231","createBadgeType(string,string,string)":"ee7103ac","getApproved(uint256)":"081812fc","hasBadge(address,uint256)":"4c6a70ce","isApprovedForAll(address,address)":"e985e9c5","issue(address,uint256)":"867904b4","name()":"06fdde03","nextTokenId()":"75794a3c","nextTypeId()":"93c2c2a2","owner()":"8da5cb5b","ownerOf(uint256)":"6352211e","renounceOwnership()":"715018a6","safeTransferFrom(address,address,uint256)":"42842e0e","safeTransferFrom(address,address,uint256,bytes)":"b88d4fde","setApprovalForAll(address,bool)":"a22cb465","supportsInterface(bytes4)":"01ffc9a7","symbol()":"95d89b41","tokenBadgeType(uint256)":"8530a3bf","tokenURI(uint256)":"c87b56dd","transferFrom(address,address,uint256)":"23b872dd","transferOwnership(address)":"f2fde38b"},"id":35}